{
  "contractName": "MobileNumberRegistry",
  "abi": [
    {
      "inputs": [],
      "payable": false,
      "stateMutability": "nonpayable",
      "type": "constructor"
    },
    {
      "constant": true,
      "inputs": [],
      "name": "getOwner",
      "outputs": [
        {
          "name": "",
          "type": "address"
        }
      ],
      "payable": false,
      "stateMutability": "view",
      "type": "function"
    },
    {
      "constant": true,
      "inputs": [
        {
          "name": "_addr",
          "type": "address"
        }
      ],
      "name": "isAdministrator",
      "outputs": [
        {
          "name": "",
          "type": "bool"
        }
      ],
      "payable": false,
      "stateMutability": "view",
      "type": "function"
    },
    {
      "constant": false,
      "inputs": [
        {
          "name": "_mobileNumber",
          "type": "string"
        },
        {
          "name": "_lastName",
          "type": "string"
        },
        {
          "name": "_firstName",
          "type": "string"
        }
      ],
      "name": "addMobileNumber",
      "outputs": [],
      "payable": false,
      "stateMutability": "nonpayable",
      "type": "function"
    },
    {
      "constant": false,
      "inputs": [
        {
          "name": "_mobileNumber",
          "type": "string"
        }
      ],
      "name": "deleteMobileNumber",
      "outputs": [],
      "payable": false,
      "stateMutability": "nonpayable",
      "type": "function"
    },
    {
      "constant": true,
      "inputs": [
        {
          "name": "_mobileNumber",
          "type": "string"
        }
      ],
      "name": "checkMobileNumber",
      "outputs": [
        {
          "name": "",
          "type": "string"
        },
        {
          "name": "",
          "type": "string"
        }
      ],
      "payable": false,
      "stateMutability": "view",
      "type": "function"
    }
  ],
  "bytecode": "0x608060405234801561001057600080fd5b50336000806101000a81548173ffffffffffffffffffffffffffffffffffffffff021916908373ffffffffffffffffffffffffffffffffffffffff1602179055506001600260003373ffffffffffffffffffffffffffffffffffffffff1673ffffffffffffffffffffffffffffffffffffffff16815260200190815260200160002060006101000a81548160ff021916908315150217905550610b12806100b86000396000f3fe608060405234801561001057600080fd5b50600436106100575760003560e01c80630a2eb3011461005c5780637b46b1aa146100b8578063893d20e8146102a1578063cbb81491146102eb578063e2b475bb146103a6575b600080fd5b61009e6004803603602081101561007257600080fd5b81019080803573ffffffffffffffffffffffffffffffffffffffff169060200190929190505050610546565b604051808215151515815260200191505060405180910390f35b61029f600480360360608110156100ce57600080fd5b81019080803590602001906401000000008111156100eb57600080fd5b8201836020820111156100fd57600080fd5b8035906020019184600183028401116401000000008311171561011f57600080fd5b91908080601f016020809104026020016040519081016040528093929190818152602001838380828437600081840152601f19601f8201169050808301925050505050505091929192908035906020019064010000000081111561018257600080fd5b82018360208201111561019457600080fd5b803590602001918460018302840111640100000000831117156101b657600080fd5b91908080601f016020809104026020016040519081016040528093929190818152602001838380828437600081840152601f19601f8201169050808301925050505050505091929192908035906020019064010000000081111561021957600080fd5b82018360208201111561022b57600080fd5b8035906020019184600183028401116401000000008311171561024d57600080fd5b91908080601f016020809104026020016040519081016040528093929190818152602001838380828437600081840152601f19601f82011690508083019250505050505050919291929050505061059c565b005b6102a96106ba565b604051808273ffffffffffffffffffffffffffffffffffffffff1673ffffffffffffffffffffffffffffffffffffffff16815260200191505060405180910390f35b6103a46004803603602081101561030157600080fd5b810190808035906020019064010000000081111561031e57600080fd5b82018360208201111561033057600080fd5b8035906020019184600183028401116401000000008311171561035257600080fd5b91908080601f016020809104026020016040519081016040528093929190818152602001838380828437600081840152601f19601f8201169050808301925050505050505091929192905050506106e3565b005b61045f600480360360208110156103bc57600080fd5b81019080803590602001906401000000008111156103d957600080fd5b8201836020820111156103eb57600080fd5b8035906020019184600183028401116401000000008311171561040d57600080fd5b91908080601f016020809104026020016040519081016040528093929190818152602001838380828437600081840152601f19601f82011690508083019250505050505050919291929050505061081d565b604051808060200180602001838103835285818151815260200191508051906020019080838360005b838110156104a3578082015181840152602081019050610488565b50505050905090810190601f1680156104d05780820380516001836020036101000a031916815260200191505b50838103825284818151815260200191508051906020019080838360005b838110156105095780820151818401526020810190506104ee565b50505050905090810190601f1680156105365780820380516001836020036101000a031916815260200191505b5094505050505060405180910390f35b6000600260008373ffffffffffffffffffffffffffffffffffffffff1673ffffffffffffffffffffffffffffffffffffffff16815260200190815260200160002060009054906101000a900460ff169050919050565b6105a533610546565b6105fa576040517f08c379a000000000000000000000000000000000000000000000000000000000815260040180806020018281038252602b815260200180610abc602b913960400191505060405180910390fd5b6040518060400160405280838152602001828152506001846040518082805190602001908083835b602083106106455780518252602082019150602081019050602083039250610622565b6001836020036101000a038019825116818451168082178552505050505050905001915050908152602001604051809103902060008201518160000190805190602001906106949291906109fc565b5060208201518160010190805190602001906106b19291906109fc565b50905050505050565b60008060009054906101000a900473ffffffffffffffffffffffffffffffffffffffff16905090565b6106ec33610546565b610741576040517f08c379a000000000000000000000000000000000000000000000000000000000815260040180806020018281038252602b815260200180610abc602b913960400191505060405180910390fd5b6040518060400160405280604051806020016040528060008152508152602001604051806020016040528060008152508152506001826040518082805190602001908083835b602083106107aa5780518252602082019150602081019050602083039250610787565b6001836020036101000a038019825116818451168082178552505050505050905001915050908152602001604051809103902060008201518160000190805190602001906107f99291906109fc565b5060208201518160010190805190602001906108169291906109fc565b5090505050565b606080610828610a7c565b6001846040518082805190602001908083835b6020831061085e578051825260208201915060208101905060208303925061083b565b6001836020036101000a0380198251168184511680821785525050505050509050019150509081526020016040518091039020604051806040016040529081600082018054600181600116156101000203166002900480601f0160208091040260200160405190810160405280929190818152602001828054600181600116156101000203166002900480156109355780601f1061090a57610100808354040283529160200191610935565b820191906000526020600020905b81548152906001019060200180831161091857829003601f168201915b50505050508152602001600182018054600181600116156101000203166002900480601f0160208091040260200160405190810160405280929190818152602001828054600181600116156101000203166002900480156109d75780601f106109ac576101008083540402835291602001916109d7565b820191906000526020600020905b8154815290600101906020018083116109ba57829003601f168201915b5050505050815250509050806000015181602001518191508090509250925050915091565b828054600181600116156101000203166002900490600052602060002090601f016020900481019282601f10610a3d57805160ff1916838001178555610a6b565b82800160010185558215610a6b579182015b82811115610a6a578251825591602001919060010190610a4f565b5b509050610a789190610a96565b5090565b604051806040016040528060608152602001606081525090565b610ab891905b80821115610ab4576000816000905550600101610a9c565b5090565b9056fe4f6e6c792061646d696e6973747261746f72732061726520616c6c6f77656420746f20746f207468697321a165627a7a723058202ee8e31245b0cd005921dc7b85e8da02ca555426ac90a617ebbd965f9e3604920029",
  "source": "pragma solidity ^0.5.8;\n\n\ncontract MobileNumberRegistry {\n\n    struct MobileNumberData {\n        string lastName;\n        string firstName;\n    }\n\n    address private contractOwner;\n    mapping (string => MobileNumberData) registry;\n    mapping (address => bool) administrators;\n\n    constructor() public {\n        contractOwner = msg.sender;\n        administrators[msg.sender] = true;\n    }\n\n    modifier onlyOwner() {\n        require(contractOwner == msg.sender, \"Only the contract owner is allowed to do this!\");\n        _;\n    }\n\n    modifier onlyAdministrator() {\n        require(isAdministrator(msg.sender), \"Only administrators are allowed to to this!\");\n        _;\n    }\n\n    function getOwner() public view returns(address) {\n        return contractOwner;\n    }\n\n    function isAdministrator(address _addr) public view returns(bool) {\n        return administrators[_addr];\n    }\n\n    // function addAdministrator(address _addr) public onlyOwner {\n    //     administrators[_addr] = true;\n    // }\n\n    // function deleteAdministrator(address _addr) public onlyOwner {\n    //     administrators[_addr] = false;\n    // }\n\n    function addMobileNumber(string memory _mobileNumber,\n                                string memory _lastName,\n                                string memory _firstName) public onlyAdministrator {\n\n        registry[_mobileNumber] = MobileNumberData({\n            lastName : _lastName,\n            firstName : _firstName\n        });\n\n    }\n\n    function deleteMobileNumber(string memory _mobileNumber) public onlyAdministrator {\n        registry[_mobileNumber] = MobileNumberData({\n            lastName : \"\",\n            firstName : \"\"\n        });\n    }\n\n    function checkMobileNumber(string memory _mobileNumber) public view\n                        returns(string memory, string memory) {\n\n        MobileNumberData memory md = registry[_mobileNumber];\n\n        return(md.lastName, md.firstName);\n    }\n}",
  "sourcePath": "/home/roangelo/stud/KU/AdvancedProjects/DApp/contracts/MobileNumberRegistry.sol",
  "compiler": {
    "name": "solc",
    "version": "0.5.8+commit.23d335f2.Emscripten.clang"
  },
  "schemaVersion": "3.0.11",
  "updatedAt": "2019-11-18T13:25:51.873Z",
  "devdoc": {
    "methods": {}
  },
  "userdoc": {
    "methods": {}
  }
}