{
  "contractName": "MobileNumberRegistry",
  "abi": [
    {
      "inputs": [],
      "payable": false,
      "stateMutability": "nonpayable",
      "type": "constructor"
    },
    {
      "constant": true,
      "inputs": [],
      "name": "getOwner",
      "outputs": [
        {
          "name": "",
          "type": "address"
        }
      ],
      "payable": false,
      "stateMutability": "view",
      "type": "function"
    },
    {
      "constant": true,
      "inputs": [
        {
          "name": "_addr",
          "type": "address"
        }
      ],
      "name": "isAdministrator",
      "outputs": [
        {
          "name": "",
          "type": "bool"
        }
      ],
      "payable": false,
      "stateMutability": "view",
      "type": "function"
    },
    {
      "constant": false,
      "inputs": [
        {
          "name": "_addr",
          "type": "address"
        }
      ],
      "name": "addAdministrator",
      "outputs": [],
      "payable": false,
      "stateMutability": "nonpayable",
      "type": "function"
    },
    {
      "constant": false,
      "inputs": [
        {
          "name": "_addr",
          "type": "address"
        }
      ],
      "name": "deleteAdministrator",
      "outputs": [],
      "payable": false,
      "stateMutability": "nonpayable",
      "type": "function"
    },
    {
      "constant": false,
      "inputs": [
        {
          "name": "_mobileNumberHash",
          "type": "string"
        },
        {
          "name": "_lastName",
          "type": "string"
        },
        {
          "name": "_firstName",
          "type": "string"
        },
        {
          "name": "_photoHash",
          "type": "string"
        }
      ],
      "name": "addMobileNumber",
      "outputs": [],
      "payable": false,
      "stateMutability": "nonpayable",
      "type": "function"
    },
    {
      "constant": true,
      "inputs": [
        {
          "name": "_mobileNumberHash",
          "type": "string"
        }
      ],
      "name": "checkMobileNumber",
      "outputs": [
        {
          "name": "",
          "type": "string"
        },
        {
          "name": "",
          "type": "string"
        },
        {
          "name": "",
          "type": "string"
        }
      ],
      "payable": false,
      "stateMutability": "view",
      "type": "function"
    }
  ],
  "bytecode": "0x608060405234801561001057600080fd5b50336000806101000a81548173ffffffffffffffffffffffffffffffffffffffff021916908373ffffffffffffffffffffffffffffffffffffffff1602179055506001600260003373ffffffffffffffffffffffffffffffffffffffff1673ffffffffffffffffffffffffffffffffffffffff16815260200190815260200160002060006101000a81548160ff021916908315150217905550610dbc806100b86000396000f3fe608060405234801561001057600080fd5b50600436106100625760003560e01c80630a2eb30114610067578063893d20e8146100c35780639fdca07d1461010d578063c99911761461038d578063dc7154cb146103d1578063e2b475bb14610415575b600080fd5b6100a96004803603602081101561007d57600080fd5b81019080803573ffffffffffffffffffffffffffffffffffffffff169060200190929190505050610621565b604051808215151515815260200191505060405180910390f35b6100cb610677565b604051808273ffffffffffffffffffffffffffffffffffffffff1673ffffffffffffffffffffffffffffffffffffffff16815260200191505060405180910390f35b61038b6004803603608081101561012357600080fd5b810190808035906020019064010000000081111561014057600080fd5b82018360208201111561015257600080fd5b8035906020019184600183028401116401000000008311171561017457600080fd5b91908080601f016020809104026020016040519081016040528093929190818152602001838380828437600081840152601f19601f820116905080830192505050505050509192919290803590602001906401000000008111156101d757600080fd5b8201836020820111156101e957600080fd5b8035906020019184600183028401116401000000008311171561020b57600080fd5b91908080601f016020809104026020016040519081016040528093929190818152602001838380828437600081840152601f19601f8201169050808301925050505050505091929192908035906020019064010000000081111561026e57600080fd5b82018360208201111561028057600080fd5b803590602001918460018302840111640100000000831117156102a257600080fd5b91908080601f016020809104026020016040519081016040528093929190818152602001838380828437600081840152601f19601f8201169050808301925050505050505091929192908035906020019064010000000081111561030557600080fd5b82018360208201111561031757600080fd5b8035906020019184600183028401116401000000008311171561033957600080fd5b91908080601f016020809104026020016040519081016040528093929190818152602001838380828437600081840152601f19601f8201169050808301925050505050505091929192905050506106a0565b005b6103cf600480360360208110156103a357600080fd5b81019080803573ffffffffffffffffffffffffffffffffffffffff1690602001909291905050506107e2565b005b610413600480360360208110156103e757600080fd5b81019080803573ffffffffffffffffffffffffffffffffffffffff1690602001909291905050506108e2565b005b6104ce6004803603602081101561042b57600080fd5b810190808035906020019064010000000081111561044857600080fd5b82018360208201111561045a57600080fd5b8035906020019184600183028401116401000000008311171561047c57600080fd5b91908080601f016020809104026020016040519081016040528093929190818152602001838380828437600081840152601f19601f8201169050808301925050505050505091929192905050506109e2565b60405180806020018060200180602001848103845287818151815260200191508051906020019080838360005b838110156105165780820151818401526020810190506104fb565b50505050905090810190601f1680156105435780820380516001836020036101000a031916815260200191505b50848103835286818151815260200191508051906020019080838360005b8381101561057c578082015181840152602081019050610561565b50505050905090810190601f1680156105a95780820380516001836020036101000a031916815260200191505b50848103825285818151815260200191508051906020019080838360005b838110156105e25780820151818401526020810190506105c7565b50505050905090810190601f16801561060f5780820380516001836020036101000a031916815260200191505b50965050505050505060405180910390f35b6000600260008373ffffffffffffffffffffffffffffffffffffffff1673ffffffffffffffffffffffffffffffffffffffff16815260200190815260200160002060009054906101000a900460ff169050919050565b60008060009054906101000a900473ffffffffffffffffffffffffffffffffffffffff16905090565b6106a933610621565b6106fe576040517f08c379a000000000000000000000000000000000000000000000000000000000815260040180806020018281038252602b815260200180610d66602b913960400191505060405180910390fd5b6040518060600160405280848152602001838152602001828152506001856040518082805190602001908083835b6020831061074f578051825260208201915060208101905060208303925061072c565b6001836020036101000a0380198251168184511680821785525050505050509050019150509081526020016040518091039020600082015181600001908051906020019061079e929190610c71565b5060208201518160010190805190602001906107bb929190610c71565b5060408201518160020190805190602001906107d8929190610c71565b5090505050505050565b3373ffffffffffffffffffffffffffffffffffffffff166000809054906101000a900473ffffffffffffffffffffffffffffffffffffffff1673ffffffffffffffffffffffffffffffffffffffff1614610887576040517f08c379a000000000000000000000000000000000000000000000000000000000815260040180806020018281038252602e815260200180610d38602e913960400191505060405180910390fd5b6001600260008373ffffffffffffffffffffffffffffffffffffffff1673ffffffffffffffffffffffffffffffffffffffff16815260200190815260200160002060006101000a81548160ff02191690831515021790555050565b3373ffffffffffffffffffffffffffffffffffffffff166000809054906101000a900473ffffffffffffffffffffffffffffffffffffffff1673ffffffffffffffffffffffffffffffffffffffff1614610987576040517f08c379a000000000000000000000000000000000000000000000000000000000815260040180806020018281038252602e815260200180610d38602e913960400191505060405180910390fd5b6000600260008373ffffffffffffffffffffffffffffffffffffffff1673ffffffffffffffffffffffffffffffffffffffff16815260200190815260200160002060006101000a81548160ff02191690831515021790555050565b60608060606109ef610cf1565b6001856040518082805190602001908083835b60208310610a255780518252602082019150602081019050602083039250610a02565b6001836020036101000a0380198251168184511680821785525050505050509050019150509081526020016040518091039020604051806060016040529081600082018054600181600116156101000203166002900480601f016020809104026020016040519081016040528092919081815260200182805460018160011615610100020316600290048015610afc5780601f10610ad157610100808354040283529160200191610afc565b820191906000526020600020905b815481529060010190602001808311610adf57829003601f168201915b50505050508152602001600182018054600181600116156101000203166002900480601f016020809104026020016040519081016040528092919081815260200182805460018160011615610100020316600290048015610b9e5780601f10610b7357610100808354040283529160200191610b9e565b820191906000526020600020905b815481529060010190602001808311610b8157829003601f168201915b50505050508152602001600282018054600181600116156101000203166002900480601f016020809104026020016040519081016040528092919081815260200182805460018160011615610100020316600290048015610c405780601f10610c1557610100808354040283529160200191610c40565b820191906000526020600020905b815481529060010190602001808311610c2357829003601f168201915b5050505050815250509050806020015181600001518260400151829250819150809050935093509350509193909250565b828054600181600116156101000203166002900490600052602060002090601f016020900481019282601f10610cb257805160ff1916838001178555610ce0565b82800160010185558215610ce0579182015b82811115610cdf578251825591602001919060010190610cc4565b5b509050610ced9190610d12565b5090565b60405180606001604052806060815260200160608152602001606081525090565b610d3491905b80821115610d30576000816000905550600101610d18565b5090565b9056fe4f6e6c792074686520636f6e7472616374206f776e657220697320616c6c6f77656420746f20646f2074686973214f6e6c792061646d696e6973747261746f72732061726520616c6c6f77656420746f20746f207468697321a165627a7a72305820b0f60524c3eaefa91a5650104da235055a02d3ee123b6cee6179cfca82bda9020029",
  "source": "pragma solidity ^0.5.8;\n\n\ncontract MobileNumberRegistry {\n\n    struct MobileNumberData {\n        string lastName;\n        string firstName;\n        string photoHash;\n    }\n\n    address private contractOwner;\n    mapping (string => MobileNumberData) registry;\n    mapping (address => bool) administrators;\n\n    constructor() public {\n        contractOwner = msg.sender;\n        administrators[msg.sender] = true;\n    }\n\n    modifier onlyOwner() {\n        require(contractOwner == msg.sender, \"Only the contract owner is allowed to do this!\");\n        _;\n    }\n\n    modifier onlyAdministrator() {\n        require(isAdministrator(msg.sender), \"Only administrators are allowed to to this!\");\n        _;\n    }\n\n    function getOwner() public view returns(address) {\n        return contractOwner;\n    }\n\n    function isAdministrator(address _addr) public view returns(bool) {\n        return administrators[_addr];\n    }\n\n    function addAdministrator(address _addr) public onlyOwner {\n        administrators[_addr] = true;\n    }\n\n    function deleteAdministrator(address _addr) public onlyOwner {\n        administrators[_addr] = false;\n    }\n\n    function addMobileNumber(string memory _mobileNumberHash,\n                                string memory _lastName,\n                                string memory _firstName,\n                                string memory _photoHash) public onlyAdministrator {\n\n        registry[_mobileNumberHash] = MobileNumberData({\n            lastName : _lastName,\n            firstName : _firstName,\n            photoHash : _photoHash\n        });\n\n    }\n\n    function checkMobileNumber(string memory _mobileNumberHash) public view\n                        returns(string memory, string memory, string memory) {\n\n        MobileNumberData memory md = registry[_mobileNumberHash];\n\n        return(md.firstName, md.lastName, md.photoHash);\n    }\n}",
  "sourcePath": "/home/roangelo/stud/KU/AdvancedProjects/DApp/contracts/MobileNumberRegistry.sol",
  "compiler": {
    "name": "solc",
    "version": "0.5.8+commit.23d335f2.Emscripten.clang"
  },
  "schemaVersion": "3.0.11",
  "updatedAt": "2019-11-19T13:24:49.112Z",
  "devdoc": {
    "methods": {}
  },
  "userdoc": {
    "methods": {}
  }
}