{
  "contractName": "MobileNumberRegistry",
  "abi": [
    {
      "inputs": [],
      "payable": false,
      "stateMutability": "nonpayable",
      "type": "constructor"
    },
    {
      "constant": true,
      "inputs": [],
      "name": "getOwner",
      "outputs": [
        {
          "name": "",
          "type": "address"
        }
      ],
      "payable": false,
      "stateMutability": "view",
      "type": "function"
    },
    {
      "constant": true,
      "inputs": [
        {
          "name": "_addr",
          "type": "address"
        }
      ],
      "name": "isAdministrator",
      "outputs": [
        {
          "name": "",
          "type": "bool"
        }
      ],
      "payable": false,
      "stateMutability": "view",
      "type": "function"
    },
    {
      "constant": false,
      "inputs": [
        {
          "name": "_addr",
          "type": "address"
        }
      ],
      "name": "addAdministrator",
      "outputs": [],
      "payable": false,
      "stateMutability": "nonpayable",
      "type": "function"
    },
    {
      "constant": false,
      "inputs": [
        {
          "name": "_addr",
          "type": "address"
        }
      ],
      "name": "deleteAdministrator",
      "outputs": [],
      "payable": false,
      "stateMutability": "nonpayable",
      "type": "function"
    },
    {
      "constant": false,
      "inputs": [
        {
          "name": "_mobileNumberHash",
          "type": "string"
        },
        {
          "name": "_lastName",
          "type": "string"
        },
        {
          "name": "_firstName",
          "type": "string"
        }
      ],
      "name": "addMobileNumber",
      "outputs": [],
      "payable": false,
      "stateMutability": "nonpayable",
      "type": "function"
    },
    {
      "constant": false,
      "inputs": [
        {
          "name": "_mobileNumberHash",
          "type": "string"
        }
      ],
      "name": "deleteMobileNumber",
      "outputs": [],
      "payable": false,
      "stateMutability": "nonpayable",
      "type": "function"
    },
    {
      "constant": true,
      "inputs": [
        {
          "name": "_mobileNumberHash",
          "type": "string"
        }
      ],
      "name": "checkMobileNumber",
      "outputs": [
        {
          "name": "",
          "type": "string"
        },
        {
          "name": "",
          "type": "string"
        }
      ],
      "payable": false,
      "stateMutability": "view",
      "type": "function"
    }
  ],
  "bytecode": "0x608060405234801561001057600080fd5b50336000806101000a81548173ffffffffffffffffffffffffffffffffffffffff021916908373ffffffffffffffffffffffffffffffffffffffff1602179055506001600260003373ffffffffffffffffffffffffffffffffffffffff1673ffffffffffffffffffffffffffffffffffffffff16815260200190815260200160002060006101000a81548160ff021916908315150217905550610dee806100b86000396000f3fe608060405234801561001057600080fd5b506004361061007d5760003560e01c8063c99911761161005b578063c999117614610311578063cbb8149114610355578063dc7154cb14610410578063e2b475bb146104545761007d565b80630a2eb301146100825780637b46b1aa146100de578063893d20e8146102c7575b600080fd5b6100c46004803603602081101561009857600080fd5b81019080803573ffffffffffffffffffffffffffffffffffffffff1690602001909291905050506105f4565b604051808215151515815260200191505060405180910390f35b6102c5600480360360608110156100f457600080fd5b810190808035906020019064010000000081111561011157600080fd5b82018360208201111561012357600080fd5b8035906020019184600183028401116401000000008311171561014557600080fd5b91908080601f016020809104026020016040519081016040528093929190818152602001838380828437600081840152601f19601f820116905080830192505050505050509192919290803590602001906401000000008111156101a857600080fd5b8201836020820111156101ba57600080fd5b803590602001918460018302840111640100000000831117156101dc57600080fd5b91908080601f016020809104026020016040519081016040528093929190818152602001838380828437600081840152601f19601f8201169050808301925050505050505091929192908035906020019064010000000081111561023f57600080fd5b82018360208201111561025157600080fd5b8035906020019184600183028401116401000000008311171561027357600080fd5b91908080601f016020809104026020016040519081016040528093929190818152602001838380828437600081840152601f19601f82011690508083019250505050505050919291929050505061064a565b005b6102cf610768565b604051808273ffffffffffffffffffffffffffffffffffffffff1673ffffffffffffffffffffffffffffffffffffffff16815260200191505060405180910390f35b6103536004803603602081101561032757600080fd5b81019080803573ffffffffffffffffffffffffffffffffffffffff169060200190929190505050610791565b005b61040e6004803603602081101561036b57600080fd5b810190808035906020019064010000000081111561038857600080fd5b82018360208201111561039a57600080fd5b803590602001918460018302840111640100000000831117156103bc57600080fd5b91908080601f016020809104026020016040519081016040528093929190818152602001838380828437600081840152601f19601f820116905080830192505050505050509192919290505050610891565b005b6104526004803603602081101561042657600080fd5b81019080803573ffffffffffffffffffffffffffffffffffffffff1690602001909291905050506109cb565b005b61050d6004803603602081101561046a57600080fd5b810190808035906020019064010000000081111561048757600080fd5b82018360208201111561049957600080fd5b803590602001918460018302840111640100000000831117156104bb57600080fd5b91908080601f016020809104026020016040519081016040528093929190818152602001838380828437600081840152601f19601f820116905080830192505050505050509192919290505050610acb565b604051808060200180602001838103835285818151815260200191508051906020019080838360005b83811015610551578082015181840152602081019050610536565b50505050905090810190601f16801561057e5780820380516001836020036101000a031916815260200191505b50838103825284818151815260200191508051906020019080838360005b838110156105b757808201518184015260208101905061059c565b50505050905090810190601f1680156105e45780820380516001836020036101000a031916815260200191505b5094505050505060405180910390f35b6000600260008373ffffffffffffffffffffffffffffffffffffffff1673ffffffffffffffffffffffffffffffffffffffff16815260200190815260200160002060009054906101000a900460ff169050919050565b610653336105f4565b6106a8576040517f08c379a000000000000000000000000000000000000000000000000000000000815260040180806020018281038252602b815260200180610d98602b913960400191505060405180910390fd5b6040518060400160405280838152602001828152506001846040518082805190602001908083835b602083106106f357805182526020820191506020810190506020830392506106d0565b6001836020036101000a03801982511681845116808217855250505050505090500191505090815260200160405180910390206000820151816000019080519060200190610742929190610caa565b50602082015181600101908051906020019061075f929190610caa565b50905050505050565b60008060009054906101000a900473ffffffffffffffffffffffffffffffffffffffff16905090565b3373ffffffffffffffffffffffffffffffffffffffff166000809054906101000a900473ffffffffffffffffffffffffffffffffffffffff1673ffffffffffffffffffffffffffffffffffffffff1614610836576040517f08c379a000000000000000000000000000000000000000000000000000000000815260040180806020018281038252602e815260200180610d6a602e913960400191505060405180910390fd5b6001600260008373ffffffffffffffffffffffffffffffffffffffff1673ffffffffffffffffffffffffffffffffffffffff16815260200190815260200160002060006101000a81548160ff02191690831515021790555050565b61089a336105f4565b6108ef576040517f08c379a000000000000000000000000000000000000000000000000000000000815260040180806020018281038252602b815260200180610d98602b913960400191505060405180910390fd5b6040518060400160405280604051806020016040528060008152508152602001604051806020016040528060008152508152506001826040518082805190602001908083835b602083106109585780518252602082019150602081019050602083039250610935565b6001836020036101000a038019825116818451168082178552505050505050905001915050908152602001604051809103902060008201518160000190805190602001906109a7929190610caa565b5060208201518160010190805190602001906109c4929190610caa565b5090505050565b3373ffffffffffffffffffffffffffffffffffffffff166000809054906101000a900473ffffffffffffffffffffffffffffffffffffffff1673ffffffffffffffffffffffffffffffffffffffff1614610a70576040517f08c379a000000000000000000000000000000000000000000000000000000000815260040180806020018281038252602e815260200180610d6a602e913960400191505060405180910390fd5b6000600260008373ffffffffffffffffffffffffffffffffffffffff1673ffffffffffffffffffffffffffffffffffffffff16815260200190815260200160002060006101000a81548160ff02191690831515021790555050565b606080610ad6610d2a565b6001846040518082805190602001908083835b60208310610b0c5780518252602082019150602081019050602083039250610ae9565b6001836020036101000a0380198251168184511680821785525050505050509050019150509081526020016040518091039020604051806040016040529081600082018054600181600116156101000203166002900480601f016020809104026020016040519081016040528092919081815260200182805460018160011615610100020316600290048015610be35780601f10610bb857610100808354040283529160200191610be3565b820191906000526020600020905b815481529060010190602001808311610bc657829003601f168201915b50505050508152602001600182018054600181600116156101000203166002900480601f016020809104026020016040519081016040528092919081815260200182805460018160011615610100020316600290048015610c855780601f10610c5a57610100808354040283529160200191610c85565b820191906000526020600020905b815481529060010190602001808311610c6857829003601f168201915b5050505050815250509050806000015181602001518191508090509250925050915091565b828054600181600116156101000203166002900490600052602060002090601f016020900481019282601f10610ceb57805160ff1916838001178555610d19565b82800160010185558215610d19579182015b82811115610d18578251825591602001919060010190610cfd565b5b509050610d269190610d44565b5090565b604051806040016040528060608152602001606081525090565b610d6691905b80821115610d62576000816000905550600101610d4a565b5090565b9056fe4f6e6c792074686520636f6e7472616374206f776e657220697320616c6c6f77656420746f20646f2074686973214f6e6c792061646d696e6973747261746f72732061726520616c6c6f77656420746f20746f207468697321a165627a7a72305820c36617f95338fef360248c6caea73a1096793a96d341100b255c9e8876a9ff780029",
  "source": "pragma solidity ^0.5.8;\n\n\ncontract MobileNumberRegistry {\n\n    struct MobileNumberData {\n        string lastName;\n        string firstName;\n    }\n\n    address private contractOwner;\n    mapping (string => MobileNumberData) registry;\n    mapping (address => bool) administrators;\n\n    constructor() public {\n        contractOwner = msg.sender;\n        administrators[msg.sender] = true;\n    }\n\n    modifier onlyOwner() {\n        require(contractOwner == msg.sender, \"Only the contract owner is allowed to do this!\");\n        _;\n    }\n\n    modifier onlyAdministrator() {\n        require(isAdministrator(msg.sender), \"Only administrators are allowed to to this!\");\n        _;\n    }\n\n    function getOwner() public view returns(address) {\n        return contractOwner;\n    }\n\n    function isAdministrator(address _addr) public view returns(bool) {\n        return administrators[_addr];\n    }\n\n    function addAdministrator(address _addr) public onlyOwner {\n        administrators[_addr] = true;\n    }\n\n    function deleteAdministrator(address _addr) public onlyOwner {\n        administrators[_addr] = false;\n    }\n\n    function addMobileNumber(string memory _mobileNumberHash,\n                                string memory _lastName,\n                                string memory _firstName) public onlyAdministrator {\n\n        registry[_mobileNumberHash] = MobileNumberData({\n            lastName : _lastName,\n            firstName : _firstName\n        });\n\n    }\n\n    function deleteMobileNumber(string memory _mobileNumberHash) public onlyAdministrator {\n        registry[_mobileNumberHash] = MobileNumberData({\n            lastName : \"\",\n            firstName : \"\"\n        });\n    }\n\n    function checkMobileNumber(string memory _mobileNumberHash) public view\n                        returns(string memory, string memory) {\n\n        MobileNumberData memory md = registry[_mobileNumberHash];\n\n        return(md.lastName, md.firstName);\n    }\n}",
  "sourcePath": "/home/roangelo/stud/KU/AdvancedProjects/DApp/contracts/MobileNumberRegistry.sol",
  "compiler": {
    "name": "solc",
    "version": "0.5.8+commit.23d335f2.Emscripten.clang"
  },
  "schemaVersion": "3.0.11",
  "updatedAt": "2019-11-18T15:48:29.301Z",
  "devdoc": {
    "methods": {}
  },
  "userdoc": {
    "methods": {}
  }
}