{
  "contractName": "MobileNumberRegistry",
  "abi": [
    {
      "inputs": [],
      "payable": false,
      "stateMutability": "nonpayable",
      "type": "constructor"
    },
    {
      "constant": false,
      "inputs": [
        {
          "name": "_addr",
          "type": "address"
        }
      ],
      "name": "addAdministrator",
      "outputs": [],
      "payable": false,
      "stateMutability": "nonpayable",
      "type": "function"
    },
    {
      "constant": false,
      "inputs": [
        {
          "name": "_addr",
          "type": "address"
        }
      ],
      "name": "deleteAdministrator",
      "outputs": [],
      "payable": false,
      "stateMutability": "nonpayable",
      "type": "function"
    },
    {
      "constant": true,
      "inputs": [
        {
          "name": "_addr",
          "type": "address"
        }
      ],
      "name": "isAdministrator",
      "outputs": [
        {
          "name": "",
          "type": "bool"
        }
      ],
      "payable": false,
      "stateMutability": "view",
      "type": "function"
    },
    {
      "constant": false,
      "inputs": [
        {
          "name": "_mobileNumber",
          "type": "string"
        },
        {
          "name": "_photoHash",
          "type": "string"
        },
        {
          "name": "_lastName",
          "type": "string"
        },
        {
          "name": "_firstName",
          "type": "string"
        }
      ],
      "name": "addMobileNumber",
      "outputs": [],
      "payable": false,
      "stateMutability": "nonpayable",
      "type": "function"
    },
    {
      "constant": false,
      "inputs": [
        {
          "name": "_mobileNumber",
          "type": "string"
        }
      ],
      "name": "deleteMobileNumber",
      "outputs": [],
      "payable": false,
      "stateMutability": "nonpayable",
      "type": "function"
    },
    {
      "constant": true,
      "inputs": [
        {
          "name": "_mobileNumber",
          "type": "string"
        }
      ],
      "name": "checkMobileNumber",
      "outputs": [
        {
          "name": "",
          "type": "string"
        },
        {
          "name": "",
          "type": "string"
        },
        {
          "name": "",
          "type": "string"
        }
      ],
      "payable": false,
      "stateMutability": "view",
      "type": "function"
    }
  ],
  "bytecode": "0x608060405234801561001057600080fd5b50336000806101000a81548173ffffffffffffffffffffffffffffffffffffffff021916908373ffffffffffffffffffffffffffffffffffffffff160217905550610f70806100606000396000f3fe608060405234801561001057600080fd5b50600436106100625760003560e01c80630a2eb301146100675780639fdca07d146100c3578063c999117614610343578063cbb8149114610387578063dc7154cb14610442578063e2b475bb14610486575b600080fd5b6100a96004803603602081101561007d57600080fd5b81019080803573ffffffffffffffffffffffffffffffffffffffff169060200190929190505050610692565b604051808215151515815260200191505060405180910390f35b610341600480360360808110156100d957600080fd5b81019080803590602001906401000000008111156100f657600080fd5b82018360208201111561010857600080fd5b8035906020019184600183028401116401000000008311171561012a57600080fd5b91908080601f016020809104026020016040519081016040528093929190818152602001838380828437600081840152601f19601f8201169050808301925050505050505091929192908035906020019064010000000081111561018d57600080fd5b82018360208201111561019f57600080fd5b803590602001918460018302840111640100000000831117156101c157600080fd5b91908080601f016020809104026020016040519081016040528093929190818152602001838380828437600081840152601f19601f8201169050808301925050505050505091929192908035906020019064010000000081111561022457600080fd5b82018360208201111561023657600080fd5b8035906020019184600183028401116401000000008311171561025857600080fd5b91908080601f016020809104026020016040519081016040528093929190818152602001838380828437600081840152601f19601f820116905080830192505050505050509192919290803590602001906401000000008111156102bb57600080fd5b8201836020820111156102cd57600080fd5b803590602001918460018302840111640100000000831117156102ef57600080fd5b91908080601f016020809104026020016040519081016040528093929190818152602001838380828437600081840152601f19601f8201169050808301925050505050505091929192905050506106e8565b005b6103856004803603602081101561035957600080fd5b81019080803573ffffffffffffffffffffffffffffffffffffffff16906020019092919050505061082a565b005b6104406004803603602081101561039d57600080fd5b81019080803590602001906401000000008111156103ba57600080fd5b8201836020820111156103cc57600080fd5b803590602001918460018302840111640100000000831117156103ee57600080fd5b91908080601f016020809104026020016040519081016040528093929190818152602001838380828437600081840152601f19601f82011690508083019250505050505050919291929050505061092a565b005b6104846004803603602081101561045857600080fd5b81019080803573ffffffffffffffffffffffffffffffffffffffff169060200190929190505050610a96565b005b61053f6004803603602081101561049c57600080fd5b81019080803590602001906401000000008111156104b957600080fd5b8201836020820111156104cb57600080fd5b803590602001918460018302840111640100000000831117156104ed57600080fd5b91908080601f016020809104026020016040519081016040528093929190818152602001838380828437600081840152601f19601f820116905080830192505050505050509192919290505050610b96565b60405180806020018060200180602001848103845287818151815260200191508051906020019080838360005b8381101561058757808201518184015260208101905061056c565b50505050905090810190601f1680156105b45780820380516001836020036101000a031916815260200191505b50848103835286818151815260200191508051906020019080838360005b838110156105ed5780820151818401526020810190506105d2565b50505050905090810190601f16801561061a5780820380516001836020036101000a031916815260200191505b50848103825285818151815260200191508051906020019080838360005b83811015610653578082015181840152602081019050610638565b50505050905090810190601f1680156106805780820380516001836020036101000a031916815260200191505b50965050505050505060405180910390f35b6000600260008373ffffffffffffffffffffffffffffffffffffffff1673ffffffffffffffffffffffffffffffffffffffff16815260200190815260200160002060009054906101000a900460ff169050919050565b6106f133610692565b610746576040517f08c379a000000000000000000000000000000000000000000000000000000000815260040180806020018281038252602b815260200180610f1a602b913960400191505060405180910390fd5b6040518060600160405280848152602001838152602001828152506001856040518082805190602001908083835b602083106107975780518252602082019150602081019050602083039250610774565b6001836020036101000a038019825116818451168082178552505050505050905001915050908152602001604051809103902060008201518160000190805190602001906107e6929190610e25565b506020820151816001019080519060200190610803929190610e25565b506040820151816002019080519060200190610820929190610e25565b5090505050505050565b3373ffffffffffffffffffffffffffffffffffffffff166000809054906101000a900473ffffffffffffffffffffffffffffffffffffffff1673ffffffffffffffffffffffffffffffffffffffff16146108cf576040517f08c379a000000000000000000000000000000000000000000000000000000000815260040180806020018281038252602e815260200180610eec602e913960400191505060405180910390fd5b6001600260008373ffffffffffffffffffffffffffffffffffffffff1673ffffffffffffffffffffffffffffffffffffffff16815260200190815260200160002060006101000a81548160ff02191690831515021790555050565b61093333610692565b610988576040517f08c379a000000000000000000000000000000000000000000000000000000000815260040180806020018281038252602b815260200180610f1a602b913960400191505060405180910390fd5b6040518060600160405280604051806020016040528060008152508152602001604051806020016040528060008152508152602001604051806020016040528060008152508152506001826040518082805190602001908083835b60208310610a0657805182526020820191506020810190506020830392506109e3565b6001836020036101000a03801982511681845116808217855250505050505090500191505090815260200160405180910390206000820151816000019080519060200190610a55929190610e25565b506020820151816001019080519060200190610a72929190610e25565b506040820151816002019080519060200190610a8f929190610e25565b5090505050565b3373ffffffffffffffffffffffffffffffffffffffff166000809054906101000a900473ffffffffffffffffffffffffffffffffffffffff1673ffffffffffffffffffffffffffffffffffffffff1614610b3b576040517f08c379a000000000000000000000000000000000000000000000000000000000815260040180806020018281038252602e815260200180610eec602e913960400191505060405180910390fd5b6000600260008373ffffffffffffffffffffffffffffffffffffffff1673ffffffffffffffffffffffffffffffffffffffff16815260200190815260200160002060006101000a81548160ff02191690831515021790555050565b6060806060610ba3610ea5565b6001856040518082805190602001908083835b60208310610bd95780518252602082019150602081019050602083039250610bb6565b6001836020036101000a0380198251168184511680821785525050505050509050019150509081526020016040518091039020604051806060016040529081600082018054600181600116156101000203166002900480601f016020809104026020016040519081016040528092919081815260200182805460018160011615610100020316600290048015610cb05780601f10610c8557610100808354040283529160200191610cb0565b820191906000526020600020905b815481529060010190602001808311610c9357829003601f168201915b50505050508152602001600182018054600181600116156101000203166002900480601f016020809104026020016040519081016040528092919081815260200182805460018160011615610100020316600290048015610d525780601f10610d2757610100808354040283529160200191610d52565b820191906000526020600020905b815481529060010190602001808311610d3557829003601f168201915b50505050508152602001600282018054600181600116156101000203166002900480601f016020809104026020016040519081016040528092919081815260200182805460018160011615610100020316600290048015610df45780601f10610dc957610100808354040283529160200191610df4565b820191906000526020600020905b815481529060010190602001808311610dd757829003601f168201915b5050505050815250509050806000015181602001518260400151829250819150809050935093509350509193909250565b828054600181600116156101000203166002900490600052602060002090601f016020900481019282601f10610e6657805160ff1916838001178555610e94565b82800160010185558215610e94579182015b82811115610e93578251825591602001919060010190610e78565b5b509050610ea19190610ec6565b5090565b60405180606001604052806060815260200160608152602001606081525090565b610ee891905b80821115610ee4576000816000905550600101610ecc565b5090565b9056fe4f6e6c792074686520636f6e7472616374206f776e657220697320616c6c6f77656420746f20646f2074686973214f6e6c792061646d696e6973747261746f72732061726520616c6c6f77656420746f20746f207468697321a165627a7a7230582093159b6c96032f6d4016461187d8531e01a9cf42d13bffd64eee5d88046002120029",
  "source": "pragma solidity ^0.5.8;\n\n\ncontract MobileNumberRegistry {\n\n    struct MobileNumberData {\n        string photoHash;\n        string lastName;\n        string firstName;\n    }\n\n    address private contractOwner;\n\n    mapping (string => MobileNumberData) registry;\n\n    mapping (address => bool) administrators;\n\n    constructor() public {\n        contractOwner = msg.sender;\n    }\n\n    modifier onlyOwner() {\n        require(contractOwner == msg.sender, \"Only the contract owner is allowed to do this!\");\n        _;\n    }\n\n\n    function addAdministrator(address _addr) public onlyOwner {\n        administrators[_addr] = true;\n    }\n\n    function deleteAdministrator(address _addr) public onlyOwner {\n        administrators[_addr] = false;\n    }\n\n    function isAdministrator(address _addr) public view returns(bool) {\n        return administrators[_addr];\n    }\n\n\n    modifier onlyAdministrator() {\n        require(isAdministrator(msg.sender), \"Only administrators are allowed to to this!\");\n        _;\n    }\n\n\n    function addMobileNumber(string memory _mobileNumber,\n                                string memory _photoHash,\n                                string memory _lastName,\n                                string memory _firstName) public onlyAdministrator {\n\n        registry[_mobileNumber] = MobileNumberData({\n            photoHash : _photoHash,\n            lastName : _lastName,\n            firstName : _firstName\n        });\n\n    }\n\n    function deleteMobileNumber(string memory _mobileNumber) public onlyAdministrator {\n        registry[_mobileNumber] = MobileNumberData({\n            photoHash : \"\",\n            lastName : \"\",\n            firstName : \"\"\n        });\n    }\n\n    function checkMobileNumber(string memory _mobileNumber) public view\n                        returns(string memory, string memory, string memory) {\n\n        MobileNumberData memory md = registry[_mobileNumber];\n\n        return(md.photoHash, md.lastName, md.firstName);\n    }\n}",
  "sourcePath": "/home/roangelo/stud/KU/AdvancedProjects/DApp/contracts/MobileNumberRegistry.sol",
  "compiler": {
    "name": "solc",
    "version": "0.5.8+commit.23d335f2.Emscripten.clang"
  },
  "schemaVersion": "3.0.11",
  "updatedAt": "2019-11-17T14:12:40.988Z",
  "devdoc": {
    "methods": {}
  },
  "userdoc": {
    "methods": {}
  }
}